:100000000C9435000C9400000C9400000C9400003B
:100010000C9400000C9400000C9400000C94000060
:100020000C9400000C9400000C9400000C94000050
:100030000C9400000C9400000C9400000C94000040
:100040000C9400000C9400000C9400000C94000030
:100050000C9400000000780501020C080400040064
:1000600054000400600258000000F894EE27ECBB36
:10007000F1E0FBBFEBBFE5BF8DE0A2E0BB27ED9356
:100080008A95E9F780E098E0A0E6ED930197E9F71B
:10009000ECE5F0E085919591009761F0A591B5911F
:1000A00005901590BF01F00105900D920197E1F7C1
:1000B000FB01F0CFEFE5EDBFE8E0EEBFC0E6D2E038
:1000C0000C946200EFEFE4BBE1BBE5BBE2BBD30104
:1000D0003CD0E0936A02F0936B02D301EAE0F0E0D7
:1000E00039D0E0936802F0936902D301E4E6F0E0CE
:1000F00031D0E0936602F0936702D301E8EEF3E0BB
:1001000029D0E0936402F093650244245524E4E08E
:10011000F0E04E165F06BCF4A0E6B2E0A40DB51DFB
:10012000EC91E2BBF201A4E6B2E0EE0FFF1FAE0FCE
:10013000BF1FEC91E5BBAAE0B0E00E94AE00F20167
:1001400031962F01E4CFE1CFFFCFEAE0F0E00E944B
:10015000D40008950E94CF00DF01F7CF109639F048
:100160008AEF90E00197F1F7A8951197C9F70895E4
:10017000F195E195F04008950024112490E1AA0F33
:10018000BB1F001C111C0E1A1F0A18F40E0E1F1E96
:1001900001C0A1609A9599F7FD01D001089512D090
:1001A000EBDF0EF4E5DF0895E894B7FF04C0A095F7
:1001B000B09511966894F7FDDBDFDEDFFD010EF4EC
:1001C000D7DF0895E894F7FF02C0D2DF6894B7FF45
:1001D00006C0A095B095119600F8039400FA089512
:00000001FF
